:020000040800F2
:10000000385F0120CD2703087958020811890208BA
:100010007B5802087F58020883580208000000003D
:1000200000000000000000000000000087580208E7
:10003000E1270308000000005F880208791C02081D
:10004000E7270308E7270308E7270308E72703084C
:10005000E7270308E7270308E7270308E72703083C
:10006000E7270308E7270308E7270308E72703082C
:10007000E7270308E727030807B40108E727030871
:100080008984010873840108E7270308952802087A
:10009000052802084B28020861290208E7270308FF
:1000A000E7270308E7270308E7270308E7270308EC
:1000B000B7580208F758020837590208F7590208DA
:1000C000F9590208FB590208FD590208E7270308FD
:1000D000E727030865620208DD8401089D620208C3
:1000E000E7270308E7270308E7270308E7270308AC
:1000F000E7270308E7270308E7270308AFB301084A
:10010000E7270308E96C020877590208E727030884
:10011000E7270308E7270308B7590208E72703087A
:10012000E7270308E7270308E7270308E72703086B
:10013000E7270308E7270308E7270308E72703085B
:10014000E7270308E7270308E7270308E72703084B
:10015000E7270308E7270308E7270308D562020813
:10016000E7270308E7270308E7270308E72703082B
:10017000E7270308E7270308E7270308E72703081B
:10018000E7270308E727030800F002F800F072F8F9
:100190000AA090E8000C82448344AAF10107DA45E2
:1001A00001D100F067F8AFF2090EBAE80F0013F0C2
:1001B000010F18BFFB1A43F00103184720B40400D5
:1001C00040B4040010F8013B0A4413F0030408BFD4
:1001D00010F8014B1D1108BF10F8015B641E05D01B
:1001E00010F8016B641E01F8016BF9D1002D15D0D8
:1001F00010F8014B03F00C030C2BA1EB04040ABF15
:1002000010F8013BA4EB8314A4EB032405F10103D4
:1002100014F8016B5B1E01F8016BF9D5914238BFF0
:1002200010F8013BD1D3704700230024002500269D
:10023000103A28BF78C1FBD8520728BF30C148BF49
:100240000B6070471FB548F09AFE9DE8030043F02D
:1002500093FE44F03FF804000020002146F0BEFF6A
:10026000401C606043F052FE1FBD10B5002043F0FB
:1002700014FF10BD44F009F81146FFF7E3FF1DF02D
:10028000FDFB44F03DF803B4FFF7EFFF03BC43F080
:1002900037FF0000F0EE401A11EE900A20F0004106
:1002A000C1F1FF41C90F31B130EE810AB6EE002A2B
:1002B00020EE020A7047F4EEE01AF1EE10FA02D2D4
:1002C000B0EE600AF6E7F4EEC11AF1EE10FA02DDC4
:1002D000B0EE410AEEE7B0EE610AEBE710B52DEDA6
:1002E000028B0446B0EE408A84ED148AD4ED140AE1
:1002F000B0EE600A606A01F0D4FBD4ED140AB0EEEF
:10030000600AA06A01F0CDFBD4ED140AB0EE600AD9
:10031000E06A01F0C6FBD4ED140AB0EE600A206B6F
:1003200001F09BF9D4ED140AB0EE600A606B01F0A5
:1003300094F9D4ED140AB0EE600AA06B01F08DF9C7
:10034000BDEC028B10BD70B52DED048B04460D463F
:100350001646206A03F00DFCB0EE408A01F0CAF8A0
:1003600018B10020BDEC048B70BD206A03F00CFCBA
:10037000B0EE408A206A03F0F1FBF0EE408A206A7A
:1003800003F0F7FBC8EE800A28EE200AD5ED010A3B
:1003900095ED008A00EE208A206A03F000FCF0EE62
:1003A000408A206A03F0DAFBB0EE409A206A03F03C
:1003B000E0FBC9EE000A28EEA00AD5ED020A00EE25
:1003C000208A86ED008A206A03F0E9FBD5ED010A58
:1003D00020EE208A206A03F0D7FBD5ED020A00EE5A
:1003E000608A86ED018A206A03F0CEFBB0EE408A77
:1003F000206A03F0BEFBC8EE000A95ED010A20EE6C
:10040000808A206A03F0CBFBF0EE408A206A03F07A
:10041000B0FBC8EE800A95ED020A00EE808A86EDF8
:10042000028A01209EE770B50446206A00F5307507
:100430009FEDFE0A284647F07EFE84ED1B0AC4EDC0
:100440001C0A84ED1D1A04F1780204F16C012046A7
:10045000FFF779FF206B01F02FFA606B01F02CFAA7
:10046000A06B01F029FA70BD10B52DED028B04468A
:10047000B0EE408AD4ED170A70EE880AB0EE600A3A
:100480003FF075FF84ED170ABDEC028B10BD30B54F
:1004900091E8380082E8380030BD10B50446D4ED4C
:1004A000180AB0EE600A606A01F029FB606A01F088
:1004B00074FB84ED1B0AD4ED190AB0EE600AA06A41
:1004C00001F01DFBA06A01F068FB84ED1C0AD4ED6D
:1004D0001A0AB0EE600AE06A01F011FBE06A01F06E
:1004E0005CFB84ED1D0A94ED1B0ABDEEC00AD048EA
:1004F00080ED000A94ED1C0ABDEEC00ACD4880EDE7
:10050000000A94ED1D0ABDEEC00ACB4880ED000A3A
:1005100010BD70B52DED028B0446F0EE408A0D46FD
:10052000B0EE608A94ED170A216A01F24441D1EDE0
:10053000020A30EE600ABDEEC00A10EE100A3FF06B
:10054000FAFE00EE100AB8EEC00A85ED020AD5EDFB
:10055000020AB0EE600AB0EE481AF1EE480AFFF760
:1005600099FE85ED020A95ED020A206A00F24440E8
:10057000D0ED020A30EE200A84ED170A94ED170A36
:10058000D4ED140A08EEA00A84ED170A94ED170AB8
:10059000BDEEC00A10EE100A3FF0B2FE00EE100AE7
:1005A000B8EEC00A84ED170ABDEC028B70BD70B5C1
:1005B0002DED028B0446F0EE408A0D46B0EE608AC7
:1005C00094ED160A216A01F24441D1ED010A30EEA0
:1005D000600ABDEEC00A10EE100A3FF0ACFE00EE5D
:1005E000100AB8EEC00A85ED010AD5ED010AB0EE99
:1005F000600AB0EE481AF1EE480AFFF74BFE85EDAF
:10060000010A95ED010A206A00F24440D0ED010A8A
:1006100030EE200A84ED160A94ED160AD4ED140A81
:1006200008EEA00A84ED160A94ED160ABDEEC00A83
:1006300010EE100A3FF07FFE00EE100AB8EEC00A7E
:1006400084ED160ABDEC028B70BD10B52DED068B46
:10065000B0EE408AF0EE608AB0EE419AB0EE490A00
:1006600000F048FF20B9B0EE680A00F043FF20B167
:1006700028EE280ABDEC068B10BD00BF28EEA80AA4
:10068000C9EE009AB4EEE98AF1EE10FA10DDF0EE50
:10069000000A89EEA00A38EE400AF0EE000A69EE80
:1006A000200A20EE200AB0EE40AA3FF00BFEE1E760
:1006B000B1EE690AB4EEC08AF1EE10FA14D2F0EE8F
:1006C000000A89EEA00AF1EE480A30EEC00AF0EE08
:1006D000000A69EE200A20EE200AB0EE40AA3FF0A0
:1006E000F1FDB1EE400AC5E728EE280AC2E770B571
:1006F0002DED028B0446F0EE408A0D46B0EE608A86
:1007000094ED150A216A01F58061D1ED110A30EEF0
:10071000600ABDEEC00A10EE100A3FF00CFE00EEBB
:10072000100AB8EEC00A85ED000AD5ED000AB0EE59
:10073000600AB0EE481AF1EE480AFFF7ABFD85ED0E
:10074000000A95ED000A206A00F58060D0ED110ADC
:1007500030EE200A84ED150A94ED150AD4ED140A42
:1007600008EEA00A84ED150A94ED150ABDEEC00A44
:1007700010EE100A3FF0DFFD00EE100AB8EEC00ADE
:1007800084ED150ABDEC028B70BD30B52DED088BE4
:1007900087B00446F0EE408AB0EE609AF0EE419ADF
:1007A000B0EE61AA04A847F037FA9FED241AF7EEDD
:1007B000000AB0EE4A0AFFF76DFDB0EE40AA04F160
:1007C000400000BF90ED000AB5EEC00AF1EE10FA4D
:1007D00049DD0C3000BF007838B304F1400000BFA1
:1007E00090ED000AD4ED140A20EE208A00BF00BF6D
:1007F00090ED000AB0EE40BAD4ED160A78EEE00AA9
:10080000B0EE600AB0EE4B1AF0EE4A0AFFF71DFF99
:10081000F0EE40AA94ED1F0A30EE080AB0EE401A3E
:1008200094ED1F0A30EE480A0AE01CE0A00CB34524
:100830006C0100207001002074010020000048427B
:10084000F0EE400AB0EE6A0AFFF724FD84ED1F0ABD
:10085000D4ED1F0AB0EE600ADFEDFE0A04A92046BF
:10086000FFF745FF14E0C4ED168AD4ED160A206A9E
:1008700000F2444090ED011A70EEC10AB0EE600A39
:100880003FF0ADFD8DED050A9FEDF30A84ED1F0AE3
:10089000D4ED251AF8EEE11AB0EE611AD4F89400FE
:1008A000404201EE900AF8EEE11AF0EE610AD4ED52
:1008B000161AB0EE610AFFF7EDFC84ED160A04F19A
:1008C000440000BF90ED000AB5EEC00AF1EE10FA48
:1008D00040DD083000BF0078D8B304F1440000BF09
:1008E00090ED000AD4ED140A20EE200AB0EE408A02
:1008F00000BF00BF90ED000AB0EE40BAD4ED150A7B
:1009000079EE600AB0EE600AB0EE4B1AF0EE4A0AD9
:10091000FFF79BFEF0EE40AA94ED1E0A30EE080AA7
:10092000B0EE401A94ED1E0A30EE480AF0EE400A8E
:10093000B0EE6A0AFFF7AEFC84ED1E0AD4ED1E0A83
:10094000B0EE600ADFEDC30A04A92046FFF72FFED0
:1009500015E0FFE784ED159AD4ED150A206A00F53D
:10096000806090ED111A70EEC10AB0EE600A3FF09F
:1009700036FD8DED040A9FEDB80A84ED1E0AD4ED14
:10098000251AF8EEE11AB0EE611AD4F8940040424C
:1009900001EE900AF8EEE11AF0EE610AD4ED151AB4
:1009A000B0EE610AFFF776FC84ED150A04F1480009
:1009B00000BF90ED000AB5EEC00AF1EE10FA26DD98
:1009C00000BF00BF90ED000AD4ED140A20EE200A0B
:1009D000B0EE408AD4ED200A79EEE00AB0EE600A6B
:1009E000B0EE481AF1EE480AFFF754FCD4ED200AA5
:1009F00030EE200A84ED200AD4ED200AB0EE600A21
:100A0000DFED960A04A92046FFF783FD0BE0C4ED55
:100A1000209AD4ED200AB0EE600ADFED900A04A916
:100A20002046FFF776FD04F1600204A92046FFF797
:100A30002EFD2046FFF731FD04F14C0000BF007889
:100A400068B104F1840204F178012046FFF71FFD2C
:100A500004F1840104F16C0047F01CF91BE001A8CB
:100A60009FED7D0ADFED7C0A94ED201A80ED000AEF
:100A7000C0ED010A80ED021A00BF054604F18402B0
:100A800029462046FFF703FD04F1840104F16C00C0
:100A900047F000F900BF07B0BDEC088B30BD10B5C2
:100AA0002DED068B84B00446B0EE40AAF0EE608ACD
:100AB000B0EE418A01A847F0AFF894ED250AB8EEF0
:100AC000C00AB0EE401AD4F89400404200EE100A7A
:100AD000B8EEC00AF0EE400AB0EE4A0AFFF7DAFBC1
:100AE00084ED150AD4ED150A206A00F5806090EDBA
:100AF000111A70EEC10AB0EE600A3FF070FC8DED85
:100B0000010A94ED250AB8EEC00AB0EE401AD4F8F6
:100B10009400404200EE100AB8EEC00AF0EE400A1F
:100B2000B0EE680AFFF7B6FB84ED160AD4ED160A9C
:100B3000206A00F2444090ED011A70EEC10AB0EE56
:100B4000600A3FF04CFC8DED020A04F1480000BF42
:100B500090ED000AB5EEC00AF1EE10FA2ADD00BFF2
:100B600000BF90ED000AD4ED140A20EE200AB0EE8A
:100B7000409A94ED200A38EE400AF0EE409AB0EE2A
:100B8000491AF1EE490AB0EE690AFFF783FBF0EE6D
:100B9000409A94ED200A30EE290A84ED200AD4ED23
:100BA000200AB0EE600ADFED2D0A01A92046FFF70A
:100BB000B0FC0BE084ED208AD4ED200AB0EE600A90
:100BC000DFED260A01A92046FFF7A3FC04F160022D
:100BD00001A92046FFF75BFC2046FFF75EFC9FED76
:100BE0001E0A84ED1E0A9FED1C0A84ED1F0A04F103
:100BF000840204F178012046FFF749FC04F18401E6
:100C000004F16C0047F046F804B0BDEC068B10BD53
:100C100030B52DED068B83B00446B0EE409AB0EEB1
:100C2000608AF0EE418A0D46684646F0F5FF94ED85
:100C3000250AB8EEC00AB0EE401AD4F8940040423B
:100C400000EE100AB8EEC00AF0EE400AB0EE490A13
:100C500006E000000060EA460000000000007A4460
:100C6000FFF718FB84ED150A94ED250AB8EEC00ACB
:100C7000B0EE401AD4F89400404200EE100AB8EEEC
:100C8000C00AF0EE400AB0EE480AFFF703FB84ED1D
:100C9000160AC4ED178A94ED150A206A00F58060E3
:100CA000D0ED110A30EE600A8DED000A94ED160ABF
:100CB000206A00F24440D0ED010A30EE600A8DED6A
:100CC000010A94ED170A206A00F24440D0ED020AAE
:100CD00030EE600A8DED020A9DED000ADFEDFE0A9E
:100CE00020EE200ABDEEC00AFC4880ED000A9DED12
:100CF000010ADFEDF90A20EE200ABDEEC00AF8482D
:100D000080ED000A9DED020ADFEDF30A20EE200AD5
:100D1000BDEEC00AF34880ED000ACDB104F13C00FD
:100D200000BF90ED000AF0EE409A00BF90ED000A7F
:100D3000B1EE400AB0EE40AADDED020AB0EE600A64
:100D4000B0EE691AF0EE4A0AFFF7A4FA8DED020A36
:100D500004F1600269462046FFF799FB2046FFF741
:100D60009CFB03B0BDEC068B30BD11B52DED060B21
:100D700083B00446684646F04FFF06A903A847F033
:100D8000B5F98DED000ACDED010A8DED021ADDED0C
:100D9000000AB0EE600A206B00F0C3FC206B00F08C
:100DA00064FD84ED040AD4ED040AB0EE600AB3EEEB
:100DB000041AFBEE040AFFF76DFA84ED040A84EDD1
:100DC000020ADDED010AB0EE600A606B00F0A9FCDA
:100DD000606B00F04AFD84ED050AD4ED050AB0EE23
:100DE000600AB2EE0A1AFAEE0A0AFFF753FA84ED25
:100DF000050A84ED010ADDED020AB0EE600AA06B7F
:100E000000F08FFCA06B00F030FD84ED060AD4EDFD
:100E1000060AB0EE600AB3EE0E1AFBEE0E0AFFF7FA
:100E200039FA84ED060A84ED030A94ED040AD4ED40
:100E3000050A94ED061A0AB010BD10B52DED048B0D
:100E40000446206B00F00CFCB0EE408AB7EE000ABE
:100E500030EE480AF0EE408A206B43F071FE68EEF7
:100E6000A80A60EEA80A60EE880A20EE200AD4EDF7
:100E7000140A80EE209A206B43F068FE79EE000A97
:100E80009FED951A81EE200ABDEC048B10BD10B5C4
:100E90002DED048B0446606B00F0E2FBB0EE408A5F
:100EA000B7EE000A30EE480AF0EE408A606B43F07D
:100EB00047FE68EEA80A60EEA80A60EE880A20EEF7
:100EC000200AD4ED140A80EE209A606B43F03EFEB7
:100ED00079EE000A9FED801A81EE200ABDEC048BAA
:100EE00010BD10B52DED048B0446A06B00F0B8FBCF
:100EF000B0EE408AB7EE000A30EE480AF0EE408AC3
:100F0000A06B43F01DFE68EEA80A60EEA80A60EE32
:100F1000880A20EE200AD4ED140A80EE209AA06BF5
:100F200043F014FE79EE000A9FED6B1A81EE200A61
:100F3000BDEC048B10BD30B52DED028B81B00446A5
:100F40000D46DDB104F1400000BF90ED000AB0EEA7
:100F5000408A00F0CFFA04F1440000BF90ED000A8F
:100F6000B0EE408A00F0C6FA04F1480000BF90EDF0
:100F7000000AB0EE408A00F0BDFA1BE01FEDCA0A7D
:100F80008DED000A694604F1400046F0BCFE1FEDFD
:100F9000CE0A8DED000A694604F1440046F0B3FE26
:100FA0001FEDD30A8DED000A694604F1480046F0B2
:100FB000AAFE00BF01B0BDEC028B30BD11B52DED16
:100FC0000A0B9FB004461CA846F026FE19A846F05E
:100FD00023FE16A846F020FE13A846F01DFE0AA820
:100FE0001EF0F9FB01A81EF0F6FB9DED1F0ADDEDDA
:100FF000220A30EE600A8DED1C0A9DED200ADDED1F
:10100000230A30EE600A8DED1D0A9DED210ADDED0B
:10101000240A30EE600A8DED1E0A9DED1C0A5FED7C
:10102000F10A20EE200ABDEEC00A2F4880ED000A2A
:101030009DED1D0A5FEDF70A20EE200ABDEEC00A05
:101040002A4880ED000A9DED1E0A5FEDFC0A20EEA5
:10105000200ABDEEC00A80ED000ADDED1C0AB0EEEC
:10106000600A606A00F04BFD606A00F096FD8DED4D
:10107000130ADDED1D0AB0EE600AA06A00F03FFD24
:10108000A06A00F08AFD8DED140ADDED1E0AB0EEB7
:10109000600AE06A00F033FDE06A00F07EFD8DED4D
:1010A000150A9DED130ADDED250A30EE600A8DED7F
:1010B000190A9DED140ADDED260A30EE600A8DED69
:1010C0001A0A9DED150ADDED270A30EE600A8DED56
:1010D0001B0ADDED190A0BE00000C84230010020B8
:1010E0003401002038010020540100205801002064
:1010F000B0EE600A206B00F014FB206B00F0B5FB33
:1011000084ED040AD4ED040AB0EE600AB3EE041ACA
:10111000FBEE040AFFF7BEF884ED040A84ED020A30
:10112000DDED1A0AB0EE600A606B00F0FAFA606B4F
:1011300000F09BFB84ED050AD4ED050AB0EE600AD1
:10114000B2EE0A1AFAEE0A0AFFF7A4F884ED050ACD
:1011500084ED010ADDED1B0AB0EE600AA06B00F021
:10116000E0FAA06B00F081FB84ED060AD4ED060ADC
:10117000B0EE600AB3EE0E1AFBEE0E0AFFF78AF825
:1011800084ED060A84ED030A9DED130ABDEEC00A44
:10119000DF4880ED000A9DED140ABDEEC00ADD486F
:1011A00080ED000A9DED150ABDEEC00ADA4880ED1B
:1011B000000A94ED040ADFEDD90A20EE200ABDEE04
:1011C000C00AD74880ED000A94ED050ADFEDD30A86
:1011D00020EE200ABDEEC00AD24880ED000A94ED50
:1011E000060ADFEDCE0A20EE200ABDEEC00ACE4888
:1011F00080ED000A94ED040AD4ED050A94ED061A78
:101200002AB010BD10B5044694ED210A206AD0ED35
:10121000B00A9FEDC61A00EEC10A94ED141AD4ED7F
:10122000180A40EE010AC4ED180AD4ED180AB0EE0F
:10123000600A9FEDBF1ADFEDBF0AFFF72BF884EDC0
:10124000180A94ED220A206AD0EDB10A9FEDB71A70
:1012500000EEC10A94ED141AD4ED190A40EE010A09
:10126000C4ED190AD4ED190AB0EE600A9FEDB01A68
:10127000DFEDB00AFFF70EF884ED190A94ED230AAA
:10128000206AD0EDB20A9FEDA91A00EEC10A94EDD2
:10129000141AD4ED1A0A40EE010AC4ED1A0AD4ED6C
:1012A0001A0AB0EE600A9FEDA21ADFEDA20AFEF75D
:1012B000F1FF84ED1A0A10BD10B52DED068B044622
:1012C000B0EE409A206A90EDB10ADFED980A20EE68
:1012D000200AF0EE40AA206A90EDB10A5FED820A82
:1012E00020EE200ABDEEC00A934880ED000A39EED8
:1012F0006A0AF0EE408AB0EE680A206B00F011FA3C
:10130000206B00F0A9FAB0EE40AA206B90ED070A1E
:10131000B0EE408AB5EEC08AF1EE10FA04DDF5EECB
:10132000C08AF1EE10FA09D3B5EEC08AF1EE10FAD8
:1013300009D2F5EEC08AF1EE10FA04DD206B00F060
:1013400035FAB0EE408A206B00F026FAF0EE409AB3
:101350007AEE080A70EEA90AB0EE600A1FEDA21A32
:10136000DFED760AFEF796FFBDEC068B10BD10B5DB
:101370002DED068B0446B0EE409A206A90EDB00A3F
:10138000DFED6A0A20EE200AF0EE40AA206A90ED16
:10139000B00A5FEDAF0A20EE200ABDEEC00A684831
:1013A00080ED000A39EE6A0AF0EE408AB0EE680A73
:1013B000606B00F0B6F9606B00F04EFAB0EE40AA38
:1013C000606B90ED070AB0EE408AB5EEC08AF1EE90
:1013D00010FA04DDF5EEC08AF1EE10FA09D3B5EE8D
:1013E000C08AF1EE10FA09D2F5EEC08AF1EE10FAD9
:1013F00004DD606B00F0DAF9B0EE408A606B00F05B
:10140000CBF9F0EE409A7AEE080A70EEA90AB0EE37
:10141000600A1FEDCF1ADFED490AFEF73BFFBDEC76
:10142000068B10BD10B52DED068B0446B0EE409A2C
:10143000206A90EDB20ADFED3D0A20EE200AF0EEC0
:1014400040AA206A90EDB20A5FEDDD0A20EE200A84
:10145000BDEEC00A3B4880ED000A39EE6A0AF0EEA4
:10146000408AB0EE680AA06B00F023F9A06B00F090
:10147000F3F9B0EE40AAA06B90ED070AB0EE408AF7
:10148000B5EEC08AF1EE10FA04DDF5EEC08AF1EE99
:1014900010FA09D3B5EEC08AF1EE10FA09D2F5EED2
:1014A000C08AF1EE10FA04DDA06B00F07FF9B0EE17
:1014B000408AA06B00F070F9F0EE409A7AEE080ACC
:1014C00070EEA90AB0EE600AB3EE0E1AFBEE0E0A39
:1014D000FEF7E0FEBDEC068B10BD04201A49087033
:1014E0000877012081F83800042081F8540081F841
:1014F00070007047F0EEC00A9FED141AF4EEC10AB6
:10150000F1EE10FA01D2012070470020FCE7000044
:101510003C010020400100204401002000007A44EA
:10152000480100204C01002050010020A00CB345D0
:1015300000803B4500803BC57C0100200000C8C204
:101540007801002080010020840100200000003488
:1015500010B52DED028B82B00446B0EE408AB0EE9D
:10156000C80A8DED010A01A904F1100046F0CBFB79
:1015700004F1100000BF90ED000ADFEDF50AB4EEB3
:10158000E00AF1EE10FA03DD00BF90ED000A01E081
:101590009FEDEF0A8DED010A01A904F1100046F05C
:1015A000B2FB02B0BDEC028B10BD11B52DED060BE8
:1015B0002DED048B81B00446B0EE618AF0EE428AD4
:1015C000B0EE629A204643F0E1F90446201D43F054
:1015D000DDF9041F04F1080043F0D8F9A0F1080474
:1015E00004F10C0043F0D2F9A0F10C0404F1100056
:1015F00043F0CCF9A0F1100484ED069A9FEDD50AD2
:1016000084ED070A9FEDD30A84ED080A9FEDD10A05
:1016100084ED090A05A9204646F075FB06A9201DA0
:1016200046F071FB07A904F1080046F06CFBB0EE30
:10163000C80A8DED000A694604F10C0046F063FB10
:10164000B0EE680A2046FFF783FF01202075204690
:1016500001B0BDEC048B07B010BD80ED060A7047E9
:1016600010B52DED028B044604F1100000BF90ED83
:10167000000AF0EE408A00F05EF920B1B7EE000AF1
:10168000BDEC028B10BD04F1100000BF90ED000A0C
:10169000DFEDB10A20EE200AF7EE000A80EE808A24
:1016A000D4ED060A94ED060A30EE081A80EE810A9F
:1016B000E6E710B52DED028B0446B0EE408A18EE39
:1016C000100A43F0F4FA10B9BDEC028B10BD207D76
:1016D00000F0010038B10020207584ED088A9FEDEC
:1016E0009D0A84ED090A2046FFF7BAFFD4ED080AE7
:1016F00078EE600A60EE208A94ED080A30EE280A3F
:1017000084ED080A94ED060AB5EEC00AF1EE10FA6F
:1017100005DD94ED060AC8EE800AC4ED090A00BF93
:10172000D2E710B52DED028B0446B0EE408A18EEDC
:10173000100A43F0BCFA10B9BDEC028B10BD207D3D
:1017400000F0010028B1002020759FED820A84ED91
:10175000090A94ED060AB5EEC00AF1EE10FA17DD9B
:1017600094ED080A38EE400AD4ED060A80EE201AFD
:10177000F0EE418A2046FFF773FFD4ED090A38EEF8
:10178000E01AD4ED090A40EE010AC4ED090A00BFCF
:1017900084ED088A00BFCFE700F1080100BF91ED9A
:1017A000000AD0ED090A20EE200A704710B52DED91
:1017B000028B0446201D00BF90ED000AB0EE408A67
:1017C00000F0B9F8E8BBD4ED060AB0EE600A00F00C
:1017D000B2F8B0BB201D00BF90ED000AD4ED080A9E
:1017E00060EE200A94ED061A94ED070A00EE810AD5
:1017F00084ED070A083000BF90ED000AB1EE400A00
:10180000D4ED070AB4EEE00AF1EE10FA08DD00BFED
:1018100000BF90ED000AB1EE400A84ED070A13E024
:1018200004F10C0000BF90ED000AD4ED070AB4EEFD
:10183000E00AF1EE10FA07D200BF00BF90ED000AF7
:1018400000E006E084ED070A94ED070ABDEC028B88
:1018500010BD9FED400AF9E700BF00BF90ED000A00
:10186000D0ED080A20EE200A704710B52DED028B4E
:1018700004462046FFF7F0FFB0EE408A2046FFF70F
:1018800095FF38EE001A2046FFF786FF31EE000A7A
:10189000BDEC028B10BD10B52DED028B0446204629
:1018A000FFF7DAFFB0EE408A2046FFF77FFF38EE01
:1018B000000ABDEC028B10BD9FED260A80ED070AE1
:1018C00070477047704711B52DED060B2DED028B5B
:1018D00081B00446B0EE618AF0EE628A03A9204628
:1018E00046F011FA04A9201D46F00DFA05A904F1ED
:1018F000080046F008FAB0EEC80A8DED000A694605
:1019000004F10C0046F0FFF907A904F1100046F0BD
:10191000FAF9C4ED068A01B0BDEC028B07B010BD28
:1019200004200E490870087781F8380081F85400C7
:1019300081F870007047F0EEC00A9FED091AF4EECE
:10194000C10AF1EE10FA01D2012070470020FCE735
:101950000AD7233C00000000DB0FC9402C02002006
:1019600000000034F0EE400A00BF00BF90ED000A16
:1019700020EE200A70477047704704200149087024
:1019800070470000D4020020B0EE401AB4EEE01A16
:10199000F1EE10FA02DDB0EE600A7047B1EE600AB7
:1019A000B4EEC01AF1EE10FA02D2B1EE600AF4E71A
:1019B000B0EE410AF1E710B52DED028B82B004467E
:1019C000B0EE408AB0EEC80A8DED010A01A904F11B
:1019D000080046F098F904F1080000BF90ED000AF5
:1019E000DFED910AB4EEE00AF1EE10FA03DD00BF7C
:1019F00090ED000A01E09FED8C0A8DED010A01A92E
:101A000004F1080046F07FF902B0BDEC028B10BD76
:101A100031B52DED060B2DED048B82B00446B0EEF2
:101A2000418AF0EE618AB0EE429A204642F0AEFF63
:101A30000446201D42F0AAFF041F04F1080042F0F2
:101A4000A5FFA0F1080404F10C0042F09FFFA0F1F3
:101A50000C04C4ED058A9FED750A84ED060A9FED1E
:101A6000730A84ED070A06A9204646F04CF907A937
:101A7000201D46F048F9B0EE480A2046FFF79BFFCC
:101A800025468DED019A01A905F10C0046F03BF9C0
:101A900000BF01202074204602B0BDEC048B07B0CB
:101AA00030BD80ED050A704700F1080100BF91EDDF
:101AB000000AB0EEC01ADFED5E1AB4EEE11AF1EEE4
:101AC00010FA01D2012100E0002111B1B7EE000AA5
:101AD000704700F1080100BF91ED000A9FED551A13
:101AE00020EE010AB7EE001AC1EE000A90ED051AC9
:101AF00090ED050A70EE201A81EE210AE8E700B5A4
:101B00000246B0EE402A12EE100AC0F3C751FF2978
:101B100001D0012100E0002101B900BD107C00F0DE
:101B2000010028B1002010749FED400A82ED070AE1
:101B300092ED050AB5EEC00AF1EE10FA17DD92ED4E
:101B4000060A32EE400AD2ED050A80EE201AF0EEC7
:101B5000412A1046FFF7A8FFD2ED070A32EEE01A3D
:101B6000D2ED070A40EE010AC2ED070A00BF82ED7E
:101B7000062A00BFD1E7011D00BF91ED000AD0ED9C
:101B8000070A20EE200A704700BF00BF90ED000A50
:101B9000D0ED060A20EE200A704700B5024602F199
:101BA0000C0000BF90ED000AF0EE401A1046FFF75F
:101BB000EBFFB0EE401A1046FFF7DDFF31EE000AF2
:101BC000B0EE402AF0EE610AFFF7DEFE00BD31B54F
:101BD0002DED080B2DED048B0446F0EE608AB0EE7F
:101BE000619AB0EE628A04A9204646F08CF806A9F4
:101BF000201D46F088F808A904F1080046F083F893
:101C000084ED058A0AA904F10C0046F07CF8BDECCD
:101C1000048B09B030BD042007490870087781F8AB
:101C2000380081F8540070470AD7233C00000000B8
:101C300000000034DB0FC9400C030020B0EE401A56
:101C4000B4EEE01AF1EE10FA02D2B0EE410A70479B
:101C5000B0EE600AFBE7B0EE401AB4EEE01AF1EE27
:101C600010FA02DDB0EE410A7047B0EE600AFBE701
:101C7000B0EE401A21EE200A7047B0EE401A31EE65
:101C8000200A01EE600A7047B0EE401A31EE200AD9
:101C9000704770B5049C41628262C362046331255F
:101CA0000573AFF24D06C661AFF23B060661AFF2B7
:101CB00073068661AFF23D06466102264673012631
:101CC000867370BD10B52DED048BF0EE408A04468E
:101CD00094ED000AB0EE409A94ED010AB0EE408A0D
:101CE00094ED020AF0EE409AB4EEC89AF1EE10FAC2
:101CF00007DD00BF4FF49772F649F7A032F0F3FF0B
:101D000000BFB4EEE98AF1EE10FA07DD00BF4FF430
:101D10009872F049FEA032F0E6FF00BFB4EE489A98
:101D2000F1EE10FA13D1B4EE698AF1EE10FA0ED189
:101D3000F4EE498AF1EE10FA01D1012000E0002012
:101D400000EE100AB8EEC00ABDEC048B10BDB4EE74
:101D5000489AF1EE10FA22D139EEE80A39EEC81AA3
:101D6000C0EE010AB4EEE88AF1EE10FA01D80120C3
:101D700000E0002000EE100AB8EEC00A60EE800A13
:101D8000F4EEE98AF1EE10FA01D8012000E000201B
:101D900000EE100AB8EEC00A20EE800AD4E7B4EED6
:101DA000698AF1EE10FA22D138EEC90A38EE491AE2
:101DB000C0EE010AB4EEE89AF1EE10FA01D8012063
:101DC00000E0002000EE100AB8EEC00A60EE800AC3
:101DD000F4EEC88AF1EE10FA01D8012000E00020EC
:101DE00000EE100AB8EEC00A20EE800AACE778EEEA
:101DF000C90A38EE491A80EE810A79EEE80A39EE0E
:101E0000C81AC0EE811AB4EEE10AF1EE10FA06D259
:101E100078EEC90A38EE491A80EE810A05E079EEBB
:101E2000E80A39EEC81A80EE810AB5EEC00AF1EE72
:101E300010FA1EDD78EEC90A38EE491A80EE810AE2
:101E400079EEE80A39EEC81AC0EE811AB4EEE10A5A
:101E5000F1EE10FA06D278EEC90A38EE491A80EE91
:101E6000810A71E779EEE80A39EEC81A80EE810A34
:101E70006AE79FEDB50A67E710B52DED088BB0EE68
:101E8000408A044694ED000AF0EE408A94ED010A7F
:101E9000B0EE409A94ED020AF0EE409A94ED030AF7
:101EA000B0EE40AA9FEDA80AF0EE40AA9FEDA60A68
:101EB000B0EE40BAF4EEC98AF1EE10FA07DD00BFC9
:101EC0004FF4A172A149A2A032F00DFF00BFB4EE01
:101ED000E99AF1EE10FA07DD00BF40F245129B4986
:101EE000AAA032F000FF00BFF4EECA9AF1EE10FA99
:101EF00007DD00BF4FF4A4729449B3A032F0F3FEA3
:101F000000BFB4EEC89AF1EE10FA04D8B7EE000A9A
:101F1000F0EE40AA16E0B4EEE88AF1EE10FA04D230
:101F20009FED890AF0EE40AA0CE0F4EE498AF1EE4A
:101F300010FA07D038EE680A79EE680A80EE201AA7
:101F4000F0EE41AAB4EEE98AF1EE10FA04D8B7EE49
:101F5000000AB0EE40BA16E0B4EEC8AAF1EE10FAEC
:101F600004D29FED790AB0EE40BA0CE0F4EE4A9A42
:101F7000F1EE10FA07D03AEE480A7AEE690A80EEDE
:101F8000201AB0EE41BAF4EECBAAF1EE10FA04D268
:101F9000B0EE6A0ABDEC088B10BDB0EE4B0AF9E753
:101FA00010B52DED068BF0EE408A044694ED000A44
:101FB000B0EE409A94ED010AF0EE409AB5EEC09A68
:101FC000F1EE10FA07D100BF40F263128D498EA0E6
:101FD00032F089FE00BF38EEE90A80EE098AB1EEE0
:101FE000480A20EE080AF0EE000A80EE201AB0EE51
:101FF00041AAB0EE4A0A42F0CBFDBDEC068B10BD03
:1020000010B52DED0A8BB0EE408A044694ED000A1F
:10201000F0EE408A94ED010AB0EE409A94ED020A87
:10202000F0EE409A94ED030AB0EE40AAF5EEC08AB5
:10203000F1EE10FA04D0F5EEC09AF1EE10FA07D1E5
:1020400000BF4FF4B8727F497F4832F04CFE00BFAA
:10205000B4EEC98AF1EE10FA02DBB7EE000A17E01F
:1020600038EE490AC0EE280AB0EE60CAF0EE000A67
:10207000B0EE4C0A43F018FEB1EE400AF0EE000A52
:1020800080EE201AF0EE41BAB0EE6B0A42F080FD0D
:10209000F0EE40AAB4EECA8AF1EE10FA02D8B7EE1A
:1020A000000AD5E038EE4A0AC0EE290AB0EE60CA4E
:1020B000F0EE000AB0EE4C0A43F0F6FDB1EE400A35
:1020C000F0EE000A80EE201AF0EE41BAB0EE6B0A94
:1020D000BCE000008690040825733A25643A204944
:1020E0006C6C6567616C20706172616D657465729E
:1020F0007320696E20666973547269616E676C65DE
:102100004D662829202D2D3E2061203E20620A00A8
:1021100025733A25643A20496C6C6567616C2070C0
:102120006172616D657465727320696E2066697392
:10213000547269616E676C654D662829202D2D3EAD
:102140002062203E20630A000000000094900408F2
:1021500025733A25643A20496C6C6567616C207080
:102160006172616D657465727320696E2066697352
:1021700054726170657A6F69644D662829202D2D2F
:102180003E2061203E20620A0000000025733A25AF
:10219000643A20496C6C6567616C20706172616D96
:1021A000657465727320696E20666973547261701C
:1021B000657A6F69644D662829202D2D3E206220A6
:1021C0003E20630A0000000025733A25643A204946
:1021D0006C6C6567616C20706172616D65746572AD
:1021E0007320696E2066697354726170657A6F69D5
:1021F000644D662829202D2D3E2063203E20640A50
:1022000000000000A390040825733A25643A204991
:102210006C6C6567616C20706172616D657465726C
:102220007320696E20666973476175737369616EA7
:102230004D462829202D2D3E207369676D61203D74
:1022400020300A00B19004080CAA040842F0A0FC57
:10225000B0EE40BA2AEE8B0ABDEC0A8B10BD10B569
:102260000446F9A1204641F00DFE08B9032010BD37
:10227000F7A1204641F006FE08B90420F7E7F6A1D1
:10228000204641F0FFFD08B90220F0E7F4A1204606
:1022900041F0F8FD08B90420E9E700BF23464FF4F8
:1022A000C172F249F2A032F01EFD00BF0020DEE74D
:1022B0002DE9F04F2DED048B81B00546B0EE408A3C
:1022C000F0EE608AB0EE419A0026B246B346002096
:1022D0000090202032F008FF0646202200213046E0
:1022E00032F071F92E60ECA2ECA1304632F057FDCD
:1022F000B0EE080AC0EE080AC6ED030A07203074E3
:10230000002400276FE05CB92C2032F0EDFE04467B
:102310002C220021204632F056F9A146B4610FE08C
:102320004C4600E0A46AA06A0028FBD12C2032F0C1
:10233000DBFEA0622C220021A06A32F044F9A46ADC
:1023400007EB470101EBC701A86A00EB8100421CC3
:10235000D2A1601C32F023FD07EB470101EBC7015E
:10236000A86A10F82100207007EB470101EBC701B4
:10237000A86A00EB8100C068E06007EB470101EB51
:10238000C701A86A00EB810090ED040A84ED040AFD
:1023900007EB470101EBC701A86A00EB810090ED54
:1023A000050A84ED050A07EB470101EBC701A86A9E
:1023B00000EB810090ED060A84ED060A07EB470169
:1023C00001EBC701A86A00EB810090ED070A84EDDC
:1023D000070A07EB470101EBC701A86A00EB810080
:1023E000006A20627F1C307CB8428CDC20210120F6
:1023F00041F0F8FAF06120220021F06932F0E3F8B0
:10240000F669A7A2A5A1304632F0C9FCB0EE080AD1
:10241000C0EE280AC6ED030A072030740024002706
:102420006FE05CB92C2032F05FFE04462C220021C4
:10243000204632F0C8F8A146B4610FE04C4600E0F7
:10244000A46AA06A0028FBD12C2032F04DFEA062C5
:102450002C220021A06A32F0B6F8A46A07EB4701EB
:1024600001EBC701E86A00EB8100421C8BA1601CF4
:1024700032F095FC07EB470101EBC701E86A10F861
:102480002100207007EB470101EBC701E86A00EB70
:102490008100C068E06007EB470101EBC701E86A13
:1024A00000EB810090ED040A84ED040A07EB47017C
:1024B00001EBC701E86A00EB810090ED050A84EDAD
:1024C000050A07EB470101EBC701E86A00EB810051
:1024D00090ED060A84ED060A07EB470101EBC70100
:1024E000E86A00EB810090ED070A84ED070A07EB2C
:1024F000470101EBC701E86A00EB8100006A206236
:102500007F1C307CB8428CDC202032F0EDFD804610
:1025100020220021404632F056F8C5F8048062A21D
:102520005EA1404632F03BFCB0EE080AC0EE090A5C
:10253000C8ED030A072088F810000024002770E087
:1025400064B92C2032F0D0FD04462C220021204614
:1025500032F039F8A146C8F818400FE04C4600E0C8
:10256000A46AA06A0028FBD12C2032F0BDFDA06235
:102570002C220021A06A32F026F8A46A07EB47015A
:1025800001EBC701286B00EB8100421C43A1601CDA
:1025900032F005FC07EB470101EBC701286B10F88F
:1025A0002100207007EB470101EBC701286B00EB0E
:1025B0008100C068E06007EB470101EBC701286BB1
:1025C00000EB810090ED040A84ED040A07EB47015B
:1025D00001EBC701286B00EB810090ED050A84ED4B
:1025E000050A07EB470101EBC701286B00EB8100EF
:1025F00090ED060A84ED060A07EB470101EBC701DF
:10260000286B00EB810090ED070A84ED070A07EBC9
:10261000470101EBC701286B00EB8100006A2062D3
:102620007F1C98F81000B8428ADC0026B0461420BF
:1026300032F05AFD824614220021504631F0C3FF89
:10264000C5F808A00027A3E07472696D6600000059
:10265000747261706D66000067617573736D6600FA
:102660006761757373326D6600000000C0900408E6
:1026700025733A25643A20476976656E204D4620D9
:1026800074797065202825732920697320756E6B15
:102690006E6F776E2E0A0A00696E65002573000062
:1026A000696E6563000000006F7574002E68B46980
:1026B00025E007EB4701686A405C94F90010884206
:1026C0001CD10C2032F010FD83460C22002158460C
:1026D00031F079FFCAF800B004F12400CBF804000F
:1026E0000C2032F001FDCBF808000C220021DBF8B1
:1026F000080031F068FFDBF808B002E0A46A002CA3
:10270000D7D100BFF669B4690EE007EB4701686AEC
:102710000844407894F90010884204D104F1240060
:10272000CBF8040002E0A46A002CEED100BFD5F87B
:102730000480D8F818401AE007EB4701686A08449B
:10274000807894F90010884210D10C2032F0CCFC33
:1027500000900C220021009831F035FF0098CAF853
:10276000040004F124000099486002E0A46A002CEF
:10277000E2D100BF142032F0B7FCCAF810001422D6
:102780000021DAF8100031F01EFFDAF810A07F1CEB
:10279000287BB8428ADC01B0BDEC048BBDE8F08F29
:1027A00010B52DED048B0446B0EE408AF0EE608A41
:1027B000B0EE419AB0EE491AF0EE680AB0EE480A5F
:1027C0002046FFF775FDBDEC048B10BD2DE9F05FD1
:1027D0002DED048B0546AC681CE0B7EE000AF0EE68
:1027E000409A27680BE0796891ED000AF0EE400A04
:1027F000B0EE690A28698047F0EE409ABF68002F62
:10280000F1D1C4ED029A94ED020A30EE080AB0EE5E
:10281000408A2469002CE0D1B5EEC08AF1EE10FAAE
:1028200006D14EA032F05FFABDEC048BBDE8F09FFC
:10283000D5F804B0D5F800A0DBF818602CE09FEDC7
:102840004E0AB0EE409ADAF818804FF0000911E015
:10285000D8ED090A06F1100000EB890090ED001A8E
:10286000B0EE490A00EE810AB0EE409AD8F828800E
:1028700009F10109B8F1000FEAD106F1100009F1E0
:10288000010100EB810090ED000A30EE090AB0EE84
:10289000409A86ED099AB66A002ED0D1DFED368ACD
:1028A000AC6810E06068406890ED000A84ED030AAF
:1028B000D4ED020A94ED031AB0EE680A00EE810A24
:1028C000F0EE408A2469002CECD188EE880A85ED70
:1028D000080A00BFA8E770B5064635680FE0AC6986
:1028E0000AE0D5ED050AB0EE600A04F11000216A95
:1028F000884784ED090AA46A002CF2D1ED69002D05
:10290000EDD170BD0146086890ED031A21EE001A62
:1029100080ED051AC06990ED031A21EE201A80EDB2
:10292000051A704710B52DED028B0446B0EE408AB3
:10293000F0EE608AF0EE680AB0EE480A2046FFF733
:10294000E1FF2046FFF7C7FF2046FFF73FFFBDEC42
:10295000028B10BD90ED080A704700004E4F204DCD
:1029600041544348494E472052554C455320464F09
:10297000554E44210A00000000000000B0EE401A4D
:1029800021EE200A704780ED000AC0ED010A704771
:1029900010B52DED048B0446F0EE408A94ED000A4C
:1029A000B5EEC00AF1EE10FA04D1BFEE000ABDEC9C
:1029B000048B10BD94ED010A38EEC00AD4ED000A74
:1029C00080EE208AB1EE480A20EE080AF0EE000AF6
:1029D00080EE209AB0EE490A42F05AFF00BFE6E7C7
:1029E00000B50146FAEE040AB1EE0C0A0846FFF7FC
:1029F000CAFF0146F2EE040AB1EE0C0A01F108002A
:102A0000FFF7C1FFA0F10801FAEE040AB1EE0C0ACB
:102A100001F11000FFF7B7FFA0F11001F2EE040A78
:102A2000B1EE0C0A01F11800FFF7ADFFA0F118019B
:102A3000084600BD70B506460C461546D4ED000AA2
:102A4000B0EE600A3046FFF7A3FF85ED000AD4ED33
:102A5000000AB0EE600A06F10800FFF799FF85ED65
:102A6000010AD4ED010AB0EE600A06F11000FFF78A
:102A70008FFF85ED020AD4ED010AB0EE600A06F17F
:102A80001800FFF785FF85ED030A94ED000ADFEDDE
:102A9000FE0A20EE200ABDEEC00AFC4880ED000AC6
:102AA00094ED010ADFEDF80A20EE200ABDEEC00A1F
:102AB000F74880ED000A94ED010ADFEDF30A20EEFD
:102AC000200ABDEEC00AF34880ED000A94ED010A29
:102AD000DFEDED0A20EE200ABDEEC00AEE4880EDE3
:102AE000000A95ED000ADFEDE80A20EE200ABDEEAF
:102AF000C00AEA4880ED000A95ED010ADFEDE20A1E
:102B000020EE200ABDEEC00AE54880ED000A95EDF2
:102B1000020ADFEDDD0A20EE200ABDEEC00AE14820
:102B200080ED000A95ED030ADFEDD70A20EE200ABA
:102B3000BDEEC00ADC4880ED000A70BD10B52DED79
:102B4000028B0446F0EE408AB0EE608AB0EE680A6E
:102B5000204641F0E4FDB0EE480A04F1080041F0DF
:102B6000DEFDBDEC028B10BD10B52DED028B0446D1
:102B7000F0EE408AB0EE608AB0EE680A04F1100010
:102B800041F0CDFDB0EE480A04F1180041F0C7FD58
:102B9000BDEC028B10BD00B502461046FFF720FFCA
:102BA0000246BAEE040A82ED190AB2EE040A82ED78
:102BB0001A0A9FEDBE0A82ED1B0A9FEDBD0A82ED47
:102BC0001C0A92ED1B0A82ED0A0A9FEDBA0A82EDF9
:102BD0000B0A92ED1C0A82ED0C0A104600BD10B5DE
:102BE0002DED048B0446B0EE409AF0EE609AB0EE04
:102BF000418AF0EE618A2046FFF7F2FE044684ED3A
:102C0000199AC4ED1A9A84ED1B8AC4ED1C8A84EDCE
:102C10000A8A9FEDA80A84ED0B0AC4ED0C8A94ED94
:102C20001A1AF0EE410A94ED191AB0EE410A204644
:102C3000FFF784FF94ED1A1AF0EE410A94ED191A89
:102C4000B0EE410A2046FFF78FFF2046BDEC048B13
:102C500010BD90ED1A1AB4EEC01AF1EE10FA02DDB2
:102C6000B0EE401A01E090ED1A1AD0ED191AB4EE48
:102C7000E11AF1EE10FA0CDD90ED1A1AB4EEC01A5A
:102C8000F1EE10FA02DDB0EE401A04E090ED1A1AEF
:102C900001E090ED191A80ED081A90ED1A1AB4EEC1
:102CA000E01AF1EE10FA02DDB0EE601A01E090EDEC
:102CB0001A1AD0ED191AB4EEE11AF1EE10FA0CDD81
:102CC00090ED1A1AB4EEE01AF1EE10FA02DDB0EE51
:102CD000601A04E090ED1A1A01E090ED191A80EDE7
:102CE000091A704710B52DED028B044604F1340229
:102CF00004F120012046FFF79DFE94ED0F1AF0EE3F
:102D0000410A94ED0D1AB0EE410AFFF737FE84ED4B
:102D1000110A94ED101AF0EE410A94ED0D1AB0EE7E
:102D2000410AFFF72BFE84ED120A94ED0F1AF0EE24
:102D3000410A94ED0E1AB0EE410AFFF71FFE84ED32
:102D4000130A94ED101AF0EE410A94ED0E1AB0EE4B
:102D5000410AFFF713FE84ED140A94ED0A0A84ED8C
:102D6000150A94ED0B0A84ED160A94ED0B0A84ED16
:102D7000170A94ED0C0A84ED180A9FED4E0AB0EE86
:102D8000408AF0EE408A00201CE004F1440101EB8F
:102D90008001D1ED000A04F1540101EB800191EDB5
:102DA000001AB0EE680A00EE810AF0EE408A04F1E3
:102DB000440101EB800191ED000A30EE080AB0EE0B
:102DC000408A401C0428E0DBB5EEC08AF1EE10FA20
:102DD00002D139A031F087FF94ED110ADFED2A0A04
:102DE00020EE200ABDEEC00A3D4880ED000A94EDB9
:102DF000120ADFED250A20EE200ABDEEC00A39488E
:102E000080ED000A94ED130ADFED1F0A20EE200A80
:102E1000BDEEC00A344880ED000A94ED140ADFEDDF
:102E20001A0A20EE200ABDEEC00A304880ED000AE2
:102E30009FED150A28EE000ABDEEC00A2C4880ED71
:102E4000000A9FED110A28EE800ABDEEC00A29484B
:102E500080ED000A88EE880ABDEC028B10BD00B53B
:102E60000346B0EE402AF0EE602A1846FFF793FEC4
:102E7000034683ED212AC3ED222A83ED231AC3EDF5
:102E8000241A184600BD00000000C8429803002024
:102E90009C030020A0030020A4030020A80300201E
:102EA000AC030020B0030020B4030020000020C2C7
:102EB000000020420000000066757A7A79206C6F6D
:102EC000676963206572723A20666972696E67206D
:102ED000737472656E67746820697320302E000009
:102EE000B8030020BC030020C0030020C40300205E
:102EF000CC030020C803002010B52DED028B044642
:102F0000B0EE408A94ED1D0A84ED1E0A84ED1D8A00
:102F100094ED1D0AD4ED1E0A30EE600A84ED1F0AFE
:102F200094ED231AD4ED1F1A21EE211AF0EE410A76
:102F300094ED221AD4ED1D1A21EE211AB0EE410AA9
:102F40002046FFF786FE2046FFF7CCFED4ED240A8C
:102F500020EE200A84ED200A94ED200AD4ED210A07
:102F600094ED1D1A00EE810A84ED200A94ED200AEA
:102F7000BDEC028B10BD000010B52DED028BB0EE44
:102F8000408AF0EE608A68EE280AB0EE600A43F0EC
:102F900023FABDEC028B10BD80ED020A11B9394A4B
:102FA000026000E000BF00BFDFED370AC0ED010A9C
:102FB0000022C2600274704710B52DED028B0446EA
:102FC000B0EE408A9FED300AF0EE408A207CE0B3FC
:102FD000E068462850DA94ED011AF0EE410A2B4AD7
:102FE000E16802EB810191ED001AB0EE410A206820
:102FF00080472749E06801EB8000D0ED000A60EED1
:10300000880A20EE200AF0EE408A2049E06801EBB1
:10301000800090ED000ADFED1F0A20EE200ADFEDB0
:103020001E0A80EE201ABDEEC10A1C4880ED000A7F
:1030300094ED010AD4ED020A30EE200A84ED010A73
:1030400094ED010A1649E06800E015E001EB80000C
:10305000D0ED000AB4EEE00AF1EE10FA0CDD9FEDBF
:103060000A0A84ED010AE068401CE060E068462836
:1030700002D10020E0602074B0EE680ABDEC028B43
:1030800010BD0000792F000800000000D090040857
:103090000093040800007A44DB0FC940D0030020ED
:1030A000E8910408B0EE401A71EE601AB0EE610AC1
:1030B000DFEDFB1AB4EEE10AF1EE10FA06DDDFED0A
:1030C000F91A70EE611AB0EE610A0CE0DFEDF61A43
:1030D000B4EEE10AF1EE10FA05D2DFEDF21A70EE6D
:1030E000211AB0EE610A704710B50446204641F03F
:1030F0004DFC0446201D41F049FC041F04F108006A
:1031000041F044FCA0F1080404F10C0041F03EFC45
:10311000A0F10C0404F1100041F038FCA0F11004FF
:1031200004F1140041F032FCA0F1140404F1180081
:1031300041F02CFCA0F1180404F11C0044F06CFDDB
:10314000A0F11C0404F1280044F066FDA0F128045D
:1031500004F1340000218180418020F8341900BF3F
:103160000446204610BD2DE9F0412DED068B82B0BE
:1031700004460D4616461F46CC48007800F0010074
:1031800048B9CA4841F0B5FD28B1C94844F044FDEA
:10319000C648AFF30080C748007800F0010048B986
:1031A000C44841F0A6FD28B1C34844F035FDC148EC
:1031B000AFF30080C148007800F0010048B9BF4873
:1031C00041F097FD28B1BE4844F026FDBB48AFF35F
:1031D0000080BC48007800F0010048B9B94841F0CF
:1031E00088FD28B1B84844F017FDB648AFF3008019
:1031F000B648007800F00100A0B9B44841F079FD6C
:1032000080B1B3489FEDB30ADFEDB20A9FEDB11A6A
:1032100080ED000AC0ED010A80ED021A00BFAB4844
:10322000AFF300804FF00108DFEDAB8A9FEDAB8A72
:103230009FEDAB9A96ED000AB5EEC00AF1EE10FADA
:1032400012D196ED010AB5EEC00AF1EE10FA0BD1DB
:1032500096ED020AB5EEC00AF1EE10FA04D102B002
:10326000BDEC068BBDE8F0819E4800689E49086071
:103270009C48006808287CD2DFE800F00490A4FD98
:10328000FBFAF9F8924890ED010A10EE101A084680
:1032900045F004FE41EC1A0B9FED940B53EC102B00
:1032A00045F034FA3FD196ED010A854880ED010AD8
:1032B00095ED010A7E4880ED010AB7EE000A8DED1A
:1032C000010A01A9201D44F01EFDB7EE000A8DED94
:1032D000010A01A904F1080044F015FDB7EE000A47
:1032E0008DED010A01A904F10C0044F00CFDB7EECC
:1032F000000A8DED010A01A904F1100044F003FD5C
:10330000B7EE000A8DED010A01A904F1140044F0A2
:10331000FAFCB7EE000A8DED010A01A904F11800CC
:1033200044F0F1FC00BF6A4890ED010A30EE280A33
:1033300080ED010A90ED010AB4EEC80AF1EE10FA30
:1033400001DD80ED018A5A4890ED011AF0EE410A44
:1033500095ED011AB0EE410AFFF7A4FEB0EE402A47
:10336000B0EEC20AB4EEC90AF1EE10FA15DD584803
:1033700000E01AE290ED010AB1EE400A80ED010A88
:1033800096ED010A504880ED010A95ED010A4A4880
:1033900080ED010A01205349086010E25548006899
:1033A000401C5449086008460068404509DB00207D
:1033B00008609FED480A464880ED010A022049490D
:1033C0000860FCE1424890ED000A10EE101A084631
:1033D00045F064FD41EC1A0B9FED440B53EC102BB0
:1033E00045F094F909D196ED000A354880ED000AC0
:1033F00095ED000A2E4880ED000A354890ED000A50
:1034000030EE280A80ED000A90ED000AB4EEC80AFA
:10341000F1EE10FA01DD80ED008A254890ED001AEA
:10342000F0EE410A95ED001AB0EE410AFFF73AFEC0
:10343000B0EE402AB0EEC20AB4EEC90AF1EE10FABC
:1034400013DD234890ED000AB1EE400A80ED000A3A
:1034500096ED000A1C4880ED000A95ED000A16481A
:1034600080ED000A03201F490860A8E193E1ABE06A
:1034700096E041E0FFE71F480068401C1D490860D6
:1034800008460068404509DB002008609FED110AEE
:103490000F4880ED000A0420124908608FE1000007
:1034A000DB0F4940DB0FC940DB0F49C0C8040020D7
:1034B000202D0020C40400202C2D0020C00400205A
:1034C000382D0020BC040020442D0020B80400202A
:1034D000502D0020000000008FC2F53C0000C842C3
:1034E000C1B8323ED0040020D40300200000000008
:1034F00000000000CC040020C04890ED020A10EE4D
:10350000101A084645F0CAFC41EC1A0B1FED090BD6
:1035100053EC102B45F0FAF809D196ED020AB848A1
:1035200080ED020A95ED020AB64880ED020AB34822
:1035300090ED020A30EE280A80ED020A90ED020AB0
:10354000B4EEC80AF1EE10FA01DD80ED028AAD4852
:1035500090ED021AF0EE410A95ED021AB0EE410A22
:10356000FFF7A0FDB0EE402AB0EEC20AB4EEC90AE1
:10357000F1EE10FA13DDA14890ED020AB1EE400A17
:1035800080ED020A96ED020A9F4880ED020A95ED51
:10359000020A9E4880ED020A05209D4908600EE15E
:1035A0009C480068401C9B490860084600684045EC
:1035B00009DB002008601FED390A904880ED020AFF
:1035C000062093490860FAE08E4890ED001AF0EE6C
:1035D000410A8E4890ED001AB0EE410AFFF762FDF5
:1035E000B5EEC00AF1EE10FA09DDB7EE000A8DED76
:1035F000000A694604F1100044F085FB09E0BFEEC3
:10360000000A8DED000A694604F1100044F07BFBCE
:1036100000BF7C4890ED011AF0EE410A7B4890ED26
:10362000011AB0EE410AFFF73DFDB5EEC00AF1EE1A
:1036300010FA09DDB7EE000A8DED000A694604F1C3
:10364000140044F060FB09E0BFEE000A8DED000AB3
:10365000694604F1140044F056FB00BF694890ED40
:10366000021AF0EE410A694890ED021AB0EE410AE2
:10367000FFF718FDB5EEC00AF1EE10FA09DDB7EE5E
:10368000000A8DED000A694604F1180044F03BFB86
:1036900009E0BFEE000A8DED000A694604F118004A
:1036A00044F031FB00BF564890ED001AF0EE410A9D
:1036B000554890ED001AB0EE410AFFF7F3FCB5EE65
:1036C000C00AF1EE10FA04DD94ED040A84ED010A5B
:1036D0000DE004F1100000BF90ED000AB1EE400AC9
:1036E0008DED000A6946201D44F00DFB00BF4448E3
:1036F00090ED011AF0EE410A434890ED011AB0EE48
:10370000410AFFF7CFFCB5EEC00AF1EE10FA04DD76
:1037100094ED050A84ED020A0DE004F1140000BFE7
:1037200090ED000AB1EE400A8DED000A69460C38B2
:1037300044F0E9FA00BF324890ED021AF0EE410A77
:10374000314890ED021AB0EE410AFFF7ABFCB5EE3E
:10375000C00AF1EE10FA04DD94ED060A84ED030AC6
:103760000DE004F1180000BF90ED000AB1EE400A30
:103770008DED000A69460C3844F0C5FA00BF1FED14
:10378000AB0A8DED010A01A9204644F0BCFA0720DE
:103790001F49086013E01FEDB11A5FEDB20A1FED7B
:1037A000B30A164844F044FA00BF1FEDB61A5FEDA5
:1037B000B70A1FEDB80A114844F03AFA00BF00BF3B
:1037C0000E4890ED000A87ED000A90ED010A87EDA2
:1037D000010A90ED020A87ED020A00BF3FE50420CE
:1037E0000D490870087781F8380081F8540081F895
:1037F000700081F88C0081F8A8007047502D0020DF
:10380000382D0020202D0020442D00202C2D0020BC
:10381000D0040020CC040020D803002031B52DEDC9
:10382000040B86B0044603A844F0F6F901200EE02C
:10383000411E01EB410204F1B80101EB820200EBF1
:10384000400301EB83052ACD2AC2411CC8B20A28D5
:10385000EEDB04F1B80006A90EC96C300EC00020E2
:103860002BE09DED030A00EB400204F1B80101EBEF
:103870008201D1ED000A30EE200A8DED030A9DEDA4
:10388000040A00EB400204F1B80101EB8201D1ED22
:10389000010A30EE200A8DED040A9DED050A00EBC9
:1038A000400204F1B80101EB8201D1ED020A30EED1
:1038B000200A8DED050A411CC8B20A28D1DBB2EE00
:1038C000040A03A844F0E6FB8DED000ACDED010AE1
:1038D0008DED021A9DED000ADDED010A9DED021A43
:1038E0000BB030BDF0EE400A01210EE000F59872F9
:1038F00002EB810292ED000A4A1E00F5987303EB79
:10390000820282ED000A4A1CD1B20A29EEDBC0ED28
:10391000550A00210BE000F5987202EB810292ED4E
:10392000000A30EE010AB0EE401A4A1CD1B20A2950
:10393000F1DBF2EE041A81EE210A70477CB50446F1
:1039400001A9B0A015F0E1FE05469DF80410284637
:1039500015F02AFA8DED000A9FEDAC0A8DED000AF4
:103960006A4629469DF8040015F0B1FD284615F079
:10397000CCFA002084F8840400231A461946D4F8AF
:10398000000202F00AFA1021D4F8000202F07FFAD5
:103990000821D4F8000202F0E5FAD4F8000202F09F
:1039A00001FDDFED9B1AB3EE041ADFED9A0A9FEDDD
:1039B0009A0A04F5177043F027FC0120D4F80C1282
:1039C0000870022032F0DEFB7CBD10B5044693483F
:1039D000007800F0010048B9904841F08AF928B118
:1039E0008F4844F019F98D48AFF30080D4F80002F5
:1039F00002F02AFF04F52070D4F80012D1E91B234D
:103A0000496FC0E913234165D4F80012D1E91523A9
:103A1000C96DC0E90D23C1630146D1E91323496D86
:103A2000C0E9162301660146D1E90D23C96BC0E93F
:103A30001023816494EDAD0ADFED7A0A20EE200AAE
:103A4000BDEEC00A784880ED000A94EDAE0ADFEDC5
:103A5000750A20EE200ABDEEC00A744880ED000A07
:103A600094EDAF0ADFED6F0A20EE200ABDEEC00A2A
:103A70006F4880ED000A94EDB00ADFED6A0A20EE8F
:103A8000200ABDEEC00A6B4880ED000A94EDB10A31
:103A9000DFED640A20EE200ABDEEC00A664880ED24
:103AA000000A94EDB20ADFED5F0A20EE200ABDEEB7
:103AB000C00A624880ED000AD4F8002202F16001D9
:103AC0009FED5F0AD4F8100207F072F894F88404AE
:103AD00010B9012084F8840410BD10B52DED048BBD
:103AE0000446F0EE408AB0EE609AB0EE418ADFED17
:103AF000550A68EE200AB0EE600A41F021FE60EE41
:103B0000099ADFED500A68EE200AB0EE600A42F032
:103B100063FC48EE809A04F2444090ED020A39EECC
:103B2000C00AB1EE400ADFED470A20EE200A443811
:103B300080ED200ABDEC048B10BDD0F8F41181EDAE
:103B4000010AD0F8F41181ED021AD0F8F41181EDD8
:103B5000031AD0F8F411C1ED041A704710B50446E9
:103B600004F58A60D0ED010AB0EE600A42F034FC40
:103B700010BD10B5044604F58A60D0ED010AB0EE20
:103B8000600A41F0DDFD10BD10B5044604F580600B
:103B9000D0ED140AB0EE600A42F01EFC10BD10B564
:103BA000044604F58060D0ED140AB0EE600A41F0DE
:103BB000C7FD10BD10B5044604F58A60D0ED020AB9
:103BC000B0EE600A42F008FC10BD10B5044604F5E2
:103BD0008A60D0ED020AB0EE600A41F0B1FD10BD7E
:103BE00000F5806191ED170AD1ED180A91ED191ACF
:103BF000704710B5DFED140A9FED140A14481DF04C
:103C0000E7FF10BD4154545F4D5F500052499D3B4A
:103C10000000C842000036430000FA445806002065
:103C20007C2D0020CDCF5F47100600201406002019
:103C3000180600201C060020200600202406002074
:103C40000000000035FA8E3C0AD7233D6F12033C7A
:103C50005C2D0020002801DD024600E042428A423D
:103C600001DA002006E0002801DD401A02E0002809
:103C700000DA0844704710B52DED028B0446B0EE13
:103C8000408AB0EE480A42F0ACFCB7EE001AC1EE32
:103C9000000AB0EE600ABDEC028B10BD31B52DED0F
:103CA000020B0446204640F071FE04466946204659
:103CB00044F029F8B7EE000A84ED010A9FEDFE0AF0
:103CC00084ED020A9FEDFC0A84ED030A9FEDFA0AD7
:103CD00084ED040A002084F8240020463EBD10B57F
:103CE0002DED108BA2B00446F0EE40AAB0EE60BA03
:103CF000F0EE41BAF0EE618AB0EE428AF0EE629ADE
:103D0000B2EE040A8DED140A4FF496701390EB484E
:103D1000007800F0010058B9E84840F0EAFF38B1F7
:103D20009DED130AE64880ED000AE448AFF30080F9
:103D3000E3480068002804DDE1480068401EE049CF
:103D40000860DF480068DF4908600FA843F064FF9F
:103D50000CA843F061FF03A81BF03DFD94ED042A7D
:103D6000F0EE421A94ED032AB0EE421A94ED022AC4
:103D7000F0EE420A94ED012AB0EE420A03A81DF0CB
:103D8000C4FD00BFCDED0F8A8DED108ACDED119AE7
:103D900000BF0FA903A81BF0A5FB8DED0C0ACDED0C
:103DA0000D0A8DED0E1A9DED0E0ADFEDC70A30EEFD
:103DB000600A8DED0E0ADDED0C0A60EEA00A9DEDA5
:103DC0000D1ADDED0D1A41EE210A9DED0E1ADDED05
:103DD0000E1A41EE210AB0EE600A2046FFF74BFFB3
:103DE000F7EE000A80EE801A84ED051A9DED0C0AAC
:103DF00084ED060A9DED0D0A84ED070A9DED0E0A7D
:103E000084ED080A9DED0C0ADFEDB00A20EE200AD1
:103E1000BDEEC00AAE4880ED000A9DED0D0ADFED53
:103E2000AB0A20EE200ABDEEC00AAA4880ED000AC7
:103E30009DED0E0ADFEDA50A20EE200ABDEEC00AB8
:103E4000A54880ED000A94ED050ADFEDA00A20EEFA
:103E5000200ABDEEC00AA14880ED000A94ED020AD6
:103E6000B1EE400A20EE2A0AD4ED030A00EECB0A96
:103E7000D4ED040A00EEEB0AF6EE000A20EE20FA7A
:103E800094ED010A20EE2A0AD4ED030A00EEAB0AF3
:103E9000D4ED040A00EECB0AF6EE000A60EE20FA3A
:103EA00094ED010A20EE0B0AD4ED020A00EEEB0AB3
:103EB000D4ED040A00EEAA0AF6EE000A20EE200A6B
:103EC0008DED210A94ED010A20EE2B0AD4ED020AB1
:103ED00000EE8B0AD4ED030A00EEEA0AF6EE000AC1
:103EE00020EE200A8DED200AF5EEC08AF1EE10FAE0
:103EF00009D1B5EEC08AF1EE10FA04D1F5EEC09A00
:103F0000F1EE10FA7DD068EEA80A48EE080A49EEF4
:103F1000A90AB0EE600A2046FFF7ADFEB0EE409A67
:103F200028EE890AF0EE408A28EE090AB0EE408AAF
:103F300029EE890AF0EE409A94ED010AF0EE000AAB
:103F400020EE200A8DED1F0A94ED020AF0EE000A21
:103F500020EE200A8DED1E0A94ED030AF0EE000A11
:103F600020EE200A8DED1D0A94ED040AF0EE000A01
:103F700020EE200A8DED1C0A94ED010AF1EE000AF4
:103F800020EE200A8DED1B0A94ED020AF1EE000AE4
:103F900020EE200A8DED1A0A94ED030AF1EE000AD4
:103FA00020EE200A8DED190A94ED020AF2EE000AC5
:103FB00020EE200A8DED180A94ED030AF2EE000AB5
:103FC00020EE200A8DED170A94ED010AD4ED010AC6
:103FD00020EE200A8DED160A94ED020AD4ED020AB5
:103FE00060EE20DA94ED030AD4ED030A20EE20EA15
:103FF00094ED040AD4ED040A20EE200A8DED150A92
:1040000000E04AE19DED1B0A20EE0E0ADDED1D0ADF
:1040100000EEA80ADDED1B0A00EEAD0ADDED1E0A7A
:1040200000EEC80AF0EE40EA9DED1A0ADDED150A31
:1040300020EE200ADDED1C0A00EEE80ADDED160A8E
:10404000B1EE001A60EE810A94ED021A00EE810AC8
:10405000DDED1F0AB0EE401A00EEC81A9DED1A0AF7
:1040600031EE400ADDED180A00EEAD0ADDED180A6A
:1040700000EE8E0ADDED1A0A00EEA90AB0EE40CA83
:104080009DED160AF1EE000A20EE200AD4ED030A97
:1040900020EE201A9DED1F0A00EE281A9DED190A48
:1040A000DDED150A00EE201A9DED1C0A00EE481AFF
:1040B0009DED190A14E00000000000003407002004
:1040C0003807002060060020C3F51C410000C842EC
:1040D00064060020680600206C06002070060020A0
:1040E00031EE400ADDED170A00EEAD0ADDED170AEC
:1040F00000EE8E0ADDED190A00EEA90AF0EE40CAC4
:10410000B1EE000A2DEE800AD4ED040A60EE200A1A
:104110009DED1E0A40EE680AB1EE000A2EEE000A7E
:1041200094ED041A40EE010A9DED1D0A40EE480A86
:10413000B0EE60DA6EEEAE0A4CEE0C0A4CEEAC0A53
:104140004DEE0D0AB0EE600A2046FFF794FDB0EE8A
:10415000409A2EEE890AF0EE40EA2CEE090AB0EE03
:1041600040CA2CEE890AF0EE40CA2DEE090AB0EEE4
:1041700040DAFE48006800283EDDFC4890ED001A59
:10418000F8EEC11A9DED131AB8EEC11A81EE812A1C
:10419000F0EE420A00BF00BF94ED001AF7EE001ADD
:1041A00071EEE01A61EE211A9DED141A41EE201A0B
:1041B000B0EE610A9FEDEE1A20EE011ABDEEC11AB3
:1041C000EC4880ED001AB0EE4F1A00EE6E1AB0EE19
:1041D00041FAB0EE6F1A00EE4C1AF0EE41FA9DED86
:1041E000211A00EE6C1A8DED211A9DED201A00EEB9
:1041F0004D1A8DED201A50E094F8240010B90120DA
:1042000084F82400B3EE0E0A8DED020A00BF00BF51
:1042100094ED001AD4ED051A9DED020AC1EE800A54
:10422000B7EE000A30EE600A21EE00AA1AEE100A7C
:1042300044F034FE9FEDD00B53EC102BCDE9000180
:104240009DED000B51EC100B44F0F6FA03D29FEDFC
:10425000CC0AB0EE40AA9FEDC60A2AEE000ABDEED7
:10426000C00AC44880ED000AB0EE4F0A0AEE6E0A9A
:10427000B0EE40FAB0EE6F0A0AEE4C0AF0EE40FAE9
:104280009DED210A0AEE6C0A8DED210A9DED200AB2
:104290000AEE4D0A8DED200A00BF4FF0E020806944
:1042A000B849086008460068B7490968884209D9D2
:1042B0004FF0E0204069B44909680844B1490968F1
:1042C000401A04E0B0480068AE490968401A1290EC
:1042D0004FF0E020406900EE100AB8EE400A9FED72
:1042E000A41AC0EE010A9DED120AB8EE400A80EE53
:1042F000201AA64880ED001A90ED000ADFEDA40A0E
:1043000080EE201A80ED001A9E4800689E490860E1
:104310009E4890ED000ADFED9A0AB4EEE00AF1EE55
:1043200010FA03D29FED9B0A80ED000A94ED010A7A
:104330009648D0ED000A0FEE200A84ED010A94EDB4
:10434000020AD0ED000A0FEEA00A84ED020AD4EDB5
:10435000030A9DED210A90ED001A40EE010AC4ED1A
:10436000030AD4ED040A9DED200A90ED001A40EEF8
:10437000010AC4ED040AD4ED010A94ED011A60EEBD
:10438000810A94ED021AD4ED021A41EE210A94ED4D
:10439000031AD4ED031A41EE210A94ED041AD4ED68
:1043A000041A41EE210AB0EE600A2046FFF763FCD2
:1043B000B0EE409A94ED010A20EE090A84ED010A5C
:1043C00094ED020A20EE090A84ED020A94ED030A34
:1043D00020EE090A84ED030A94ED040A20EE090A8E
:1043E00084ED040A22B0BDEC108B10BD31B52DED6B
:1043F0000A0B2DED108BA0B00446B0EE61EAF0EE92
:1044000042CAF0EE62FAF0EE43AAF0EE639AB0EE22
:1044100044AAF5EEC0AAF1EE10FA0ED1F5EEC09A5C
:10442000F1EE10FA09D1B5EEC0AAF1EE10FA04D1FE
:1044300020B0BDEC108B0BB030BDB2EE040A8DED98
:10444000050A4FF496755448007800F0010040B911
:10445000514840F04EFC20B1504805604E48AFF343
:1044600000804E480068002804DD4C480068401E6B
:104470004A490860F5EEC0AAF1EE10FA19D1F5EE3E
:10448000C09AF1EE10FA14D1B5EEC0AAF1EE10FA0E
:104490000FD1F0EE6F2AB0EE6C2AF0EE4E1A9DEDC1
:1044A000321ADDED310A9DED300A2046FFF717FC88
:1044B000BEE794ED020AF1EE400A9DED300A20EECF
:1044C000800A94ED031ADDED310A01EE600A94EDE5
:1044D000041ADDED320A01EE600AF6EE000A20EE63
:1044E000200A8DED1B0AD4ED010A9DED300A20EE65
:1044F000800A94ED031ADDED320A01EE200A94EDF4
:10450000041ADDED310A01EE600AF6EE000A20EE33
:10451000200A8DED1A0AD4ED010A9DED310A20EE34
:10452000800A94ED021ADDED320A01EE600A94ED84
:10453000041ADDED300A01EE200AF6EE000A20EE44
:10454000200A8DED190AD4ED010A9DED320A20EE04
:10455000800A94ED021ADDED310A01EE200A94ED95
:10456000031ADDED300A01EE600A19E03807002079
:1045700000401C465C0600202D431CEBE2361A3F2F
:1045800017B7D1383C07002040070020440700201F
:10459000002474496F128339480700204C0700201B
:1045A000F6EE000A20EE200A8DED180AB5EEC0EAFC
:1045B000F1EE10FA09D1F5EEC0CAF1EE10FA04D10D
:1045C000F5EEC0FAF1EE10FA7ED06EEE0E0A4CEE69
:1045D000AC0A4FEEAF0AB0EE600A42F002F8F0EE1D
:1045E000408AB0EE680AB5EEC00AF1EE10FA00D1CA
:1045F0001EE7B7EE000AC0EE280AF0EE608A2EEE43
:10460000280AB0EE40EA2CEEA80AF0EE40CA2FEEDF
:10461000A80AF0EE40FA6AEEAA0A49EEA90A4AEEA2
:104620000A0AB0EE600A41F0DCFFF0EE408AF5EED7
:10463000C08AF1EE10FA00D1FAE6B7EE000AC0EE39
:10464000280AF0EE608A2AEEA80AF0EE40AA29EEC7
:10465000A80AF0EE409A2AEE280AB0EE40AA94ED9D
:10466000010AF0EE000A20EE200A20EE2A0A8DED63
:10467000150A94ED010AF0EE000A20EE200A20EE61
:10468000290A8DED140A94ED010AF0EE000A20EEDD
:10469000200A20EE0A0A8DED130A94ED020AF0EECC
:1046A000000A20EE200A20EE2A0A8DED120A94ED6F
:1046B000010AF0EE000A20EE200A8DED0F0A94EDBB
:1046C000020AF0EE000A00E041E320EE200A8DED40
:1046D0000E0A94ED030AF0EE000A20EE200A8DED9A
:1046E0000D0A94ED040AF0EE000A20EE200A8DED8A
:1046F0000C0A94ED010AF0EE000A20EE200AD4ED37
:10470000030A20EE200A8DED0B0A94ED030AF0EE69
:10471000000A20EE200AD4ED040A20EE200A8DEDD6
:104720000A0A94ED010AD4ED010A20EE200A8DED6B
:10473000090A94ED010AD4ED020A20EE20DA94ED84
:10474000010AD4ED030A60EE20DA94ED010AD4EDFB
:10475000040A20EE200A8DED080A94ED020AD4ED39
:10476000020A20EE20CA94ED020AD4ED030A20EEDC
:10477000200A8DED070A94ED020AD4ED040A60EEDA
:1047800020BA94ED030AD4ED030A20EE20BA94ED8A
:10479000030AD4ED040A20EE200A8DED060A94EDFA
:1047A000040AD4ED040A60EE20EA9DED090A2AEE1F
:1047B000800A94ED041ADDED140A00EEC10A94EDAE
:1047C000031ADDED130A00EE810A0AEE8C0ADDED14
:1047D0000E0A60EEA90A94ED031A00EE810ADDEDDF
:1047E0000E0A60EE8A0A94ED041A00EE810A0AEEBF
:1047F000CB0A0AEEEE0A8DED170AD4ED040A9DED00
:10480000150A20EE800ADDED090A09EEA00A94EDF2
:10481000021ADDED130A00EEC10A94ED031ADDED74
:10482000120A00EE810A09EECC0A09EE8B0ADDEDD0
:104830000D0A60EE8A0A94ED041A00EE810A09EE70
:10484000EE0A8DED160A9DED170A60EE000A9DED49
:10485000160AB0EE60FA00EE00FAB0EE4F0A41F030
:10486000C0FEB0EE408A00BFD4ED030A9DED150AEC
:10487000B1EE400A20EE800A94ED021ADDED140A32
:1048800000EE810ADDED090A0AEE200A94ED041A11
:10489000DDED120A00EE810A0AEE4C0ADDED0D0A8A
:1048A00060EEA90A94ED041A00EE810A0AEE4B0AA2
:1048B000B0EE409A0AEE2E9AB0EE000A68EE000AB8
:1048C000CDED110AB0EE000A29EE000A8DED100AB6
:1048D0009DED0B0AF0EE000A10EEAB0A70EE4E0AE8
:1048E0009DED0D0AB1EE400A20EE801A9DED0A0AF8
:1048F000F0EE000A00EE8D0A70EE6C1ADDED0E0A85
:10490000B0EE410A00EEA10AF6EE000A70EECB0A04
:1049100070EEEE0A60EE880A3BEEED1A49EE010AEF
:1049200070EEEA0A94ED031A21EE091A01EE600A0C
:10493000D4ED040AB1EE481A60EE811AD4ED020AF1
:1049400049EE201ADDED070A9DED081A70EEC10A46
:1049500020EE881ADDED060A7DEE200A09EE201A07
:1049600071EE690A01EEA00A7DEEAB0A60EE880ADC
:10497000B6EE001A31EE4C1A31EE4B1A49EE010A2E
:1049800070EECA0A94ED031A21EE081A01EE200A0D
:104990008DED1F0A9DED0B0AF0EE000A10EEAB0A3A
:1049A00070EE4E0A9DED0C0A20EE801A9DED0A0A6B
:1049B000F0EE000A00EE8D0A70EE6C1ADDED0F0AC3
:1049C000B0EE410A00EEA10AF7EE000AB0EE001ABE
:1049D00041EE4C0AB0EE001A41EE4B0A70EEEF0ABF
:1049E00094ED021AF1EE001A21EE211A01EE600A8E
:1049F000F6EE000A70EECB0A70EEEE0A60EE880A60
:104A00003BEEED1A49EE010A70EEEA0A94ED041A43
:104A100021EE091A01EE200AD4ED030A60EE881A8D
:104A2000D4ED010A49EE201ADDED070A9DED081AC2
:104A300070EEC10A20EE881ADDED060A7DEE200A2E
:104A400009EE201A71EE690A01EEA00AD4ED040AFB
:104A500020EE881AD4ED021ADDED100A00EEE11AFC
:104A60007DEEAB0A60EE880AF6EE001A71EECC1A03
:104A700071EECB1A49EE210A70EECA0A01EE200A45
:104A80008DED1E0A9DED0B0AF0EE000A10EEAB0A4A
:104A900070EE4E0A9DED0F0AB1EE400A20EE801A2C
:104AA0009DED0A0AF0EE000A00EE8D0A70EE6C1A17
:104AB000DDED0C0AB0EE410A00EEA10AF7EE000AA5
:104AC000B0EE001A41EE4C0AB0EE001A41EE4B0A6D
:104AD00070EEEF0A94ED031AF1EE001A21EE211A9E
:104AE00001EE600A94ED031ADDED110AF1EE600AA1
:104AF00061EE200A94ED011A49EE410AB6EE001A61
:104B000031EE4B1A31EE6E1A21EE081A7BEEED1AD9
:104B100009EE211A31EE6A1A00EE810AD4ED020A7A
:104B200060EE881AD4ED040A49EE201ADDED070A7A
:104B30009DED081A70EEC10A20EE881ADDED060A16
:104B40007DEE200A09EE201A71EE690A01EEA00A34
:104B5000D4ED010A20EE881AD4ED031ADDED100A17
:104B600000EEE11A7DEEAB0A60EE880AF6EE001A5E
:104B700071EECC1A71EECB1A49EE210A70EECA0A18
:104B800001EE200A8DED1D0A9DED0B0AF0EE000AE4
:104B900010EEAB0A70EE4E0A9DED0E0A60EE800A32
:104BA0009DED0A0AB0EE001A01EE0D0A70EE6C1AC5
:104BB0009DED0D1AB0EE600A01EE210A94ED041A83
:104BC000DDED110AF1EE600A21EE201AD4ED020AA1
:104BD00009EE201AF6EE000A70EECB0A70EEEE0A2D
:104BE00060EE880A7BEEED1A49EE210A70EEEA0AC1
:104BF00001EE200AD4ED010AB1EE481A60EE810AF6
:104C000094ED031A49EE010A9DED071ADDED081A2D
:104C100031EE611A61EE081A9DED061A3DEE012A89
:104C2000B0EE611A09EE021A31EE691A00EE810A3D
:104C30007DEEAB0A60EE880AB6EE001A31EE4C1A31
:104C400031EE4B1A49EE010A70EECA0A94ED021ACF
:104C500021EE081A01EE200A8DED1C0ADDED1F0A77
:104C600060EEA00A9DED1E1A41EE010A9DED1D1A8F
:104C700041EE010A9DED1C1A41EE010AB0EE600AF8
:104C80002046FEF7F8FFF0EE408A9DED1F0A20EE69
:104C9000280A8DED1F0A9DED1E0A20EE280A8DEDD3
:104CA0001E0A9DED1D0A20EE280A8DED1D0A9DEDC0
:104CB0001C0A20EE280A8DED1C0AFE480068002818
:104CC00046DDFC4890ED001AF8EEC11A01EE105ACC
:104CD000B8EEC11A81EE812AF0EE420A00BF00BF91
:104CE00094ED001AF7EE001A71EEE01A21EE211A87
:104CF000DDED051A01EEA01AB0EE410A9FEDEE1AA5
:104D000020EE011ABDEEC11AEC4880ED001A9DEDAF
:104D10001B1ADDED1F1A00EE611A8DED1B1A9DEDB9
:104D20001A1ADDED1E1A00EE611A8DED1A1A9DEDAC
:104D3000191ADDED1D1A00EE611A8DED191A9DED9F
:104D4000181ADDED1C1A00EE611A8DED181A58E0E4
:104D500094F8240010B9012084F82400B3EE010A6D
:104D60008DED020A00BF00BFD4ED000A94ED051AD4
:104D70009DED020AC1EE001AB7EE000A30EE610A9C
:104D800020EE80FA1FEE100A44F088F89FEDCC0B5D
:104D900053EC102BCDE900019DED000B51EC100BF5
:104DA00043F04AFD03D29FEDC80AB0EE40FA9FEDF2
:104DB000C20A2FEE000ABDEEC00AC04880ED000A0C
:104DC0009DED1B0ADDED1F0A0FEE600A8DED1B0A3B
:104DD0009DED1A0ADDED1E0A0FEE600A8DED1A0A2E
:104DE0009DED190ADDED1D0A0FEE600A8DED190A21
:104DF0009DED180ADDED1C0A0FEE600A8DED180A14
:104E000000BF4FF0E0208069B049086008460068A4
:104E1000AF490968884209D94FF0E0204069AC49A0
:104E200009680844A9490968401A04E0A8480068CC
:104E3000A6490968401A03904FF0E020406900EE4F
:104E4000100AB8EE400A9FED9C1AC0EE010A9DEDD3
:104E5000030AB8EE400A80EE201A8DED041A9DED8B
:104E6000040ADFED9C0A80EE201A8DED041A9748A3
:104E70000068974908609DED040ADFED930AB4EEDF
:104E8000E00AF1EE10FA03D29FED930A8DED040AC9
:104E900094ED011A9DED1B0ADDED040A00EE201AC7
:104EA00084ED011A94ED021A9DED1A0ADDED040A53
:104EB00000EE201A84ED021A94ED031A9DED190AF2
:104EC000DDED040A00EE201A84ED031A94ED041AB5
:104ED0009DED180ADDED040A00EE201A84ED041A97
:104EE000D4ED010A94ED011A60EE810A94ED021AE4
:104EF000D4ED021A41EE210A94ED031AD4ED031AFF
:104F000041EE210A94ED041AD4ED041A41EE210A6F
:104F1000B0EE600A41F065FBF0EE408AF5EEC08A23
:104F2000F1EE10FA01D1FFF783BAB7EE000AC0EE36
:104F3000280AF0EE608A94ED010A20EE280A84ED3A
:104F4000010A94ED020A20EE280A84ED020A94ED8B
:104F5000030A20EE280A84ED030A94ED040A20EEE9
:104F6000280A84ED040A00BFDDE770B52DED048B3F
:104F700004460D46164694ED010AB0EE408A94EDC3
:104F8000020AB1EE400AF0EE409A94ED030AB1EE47
:104F9000400AF0EE408A94ED040AB1EE400AB0EE09
:104FA000409A68EE890A48EE690AB0EE001A60EE8F
:104FB000810AB0EE600A3FF031FF86ED000AB0EEE4
:104FC000001A68EE011AB7EE001A11EE881AF0EE18
:104FD000001A69EE211A01EE891AF0EE410A29EE53
:104FE000891A08EE281AF8EE001A21EE211AB0EEFE
:104FF000410A40F00DFA86ED010AB0EE001A68EEA3
:10500000011AB7EE001A11EE881AF0EE001A68EED7
:10501000A11A01EEA81AF0EE410A29EEA81A08EE2C
:10502000091AF8EE001A21EE211AB0EE410A40F0FA
:10503000EFF986ED020A96ED000ADFED280A20EE70
:10504000200A85ED000A96ED010ADFED240A20EE24
:10505000200A85ED010A96ED020ADFED200A20EE16
:10506000200A85ED020A95ED000ADFED1D0A20EE0B
:10507000200ABDEEC00A1B4880ED000A95ED010A2A
:10508000DFED170A20EE200ABDEEC00A164880EDBB
:10509000000A95ED020ADFED120A20EE200ABDEEAD
:1050A000C00A124880ED000A94ED010ADFED100AF3
:1050B00020E000004C07002000401C465C06002059
:1050C0002D431CEBE2361A3F17B7D13850070020AA
:1050D00054070020002474496F128339E02E654282
:1050E0000000C84274060020780600207C060020DC
:1050F00000007A4420EE200ABDEEC00AFE4880ED92
:10510000000A94ED020A5FED060A20EE200ABDEEC9
:10511000C00AFA4880ED000A94ED030A5FED0C0A1C
:1051200020EE200ABDEEC00AF54880ED000A94ED9D
:10513000040A5FED110A20EE200ABDEEC00AF14814
:1051400080ED000ABDEC048B70BD10B52DED028B17
:105150000446B0EE408AB0EE480A41F042FAB7EE9B
:10516000001AC1EE000AB0EE600ABDEC028B10BD61
:10517000B0EE401AF0EEE02AF0EE621AF0EEC12A2C
:10518000B0EE622AF4EEC21AF1EE10FA02DDF0EE91
:10519000612A01E0F0EE422AB0EE620AB5EEC00AE2
:1051A000F1EE10FA0ED0F4EEC21AF1EE10FA02D2BD
:1051B000F0EE612A01E0F0EE422A82EE803AB0EE93
:1051C000430A03E0DFEDD02AB0EE620ADFEDCF2A1A
:1051D0009FEDCF3A53EE002A9FEDCE3A12EE803A81
:1051E000DFEDCD2A53EE002A9FEDCC3A12EE803A45
:1051F000F1EE433ADFEDCA2A9FEDCA3A43EE002AA8
:10520000B7EE003A02EE803AC3EE832AB0EE620AAD
:10521000B4EEE12AF1EE10FA05DDDFEDC32A72EEFD
:10522000C02AB0EE620AF5EEC00AF1EE10FA05D21D
:10523000DFEDBE2A72EEC02AB0EE620AB5EEC01AE9
:10524000F1EE10FA03D2F1EE402AB0EE620A704796
:105250000146F0EE400ABDEEE00A10EE100A10F131
:10526000200F01DB202802DD9FEDA70A704705E033
:105270009FEDAF0A30EEC00AF0EE400A9FEDAB0A98
:10528000F4EEC00AF1EE10FAF2DC05E09FEDA80A98
:1052900030EE800AF0EE400A9FEDA60AF4EEC00A56
:1052A000F1EE10FAF2D39FEDA00AF4EEC00AF1EE8F
:1052B00010FA0ADD9FED9C0A30EEC00ADFED9A1A63
:1052C00031EEC00AF0EE400A10E09FED9B0AF4EECA
:1052D000C00AF1EE10FA09D29FED930A30EE800A6F
:1052E000DFED951A31EEC00AF0EE400A20EEA01A6A
:1052F00020EE812A9FED910ADFED911A41EE001A0E
:105300009FED900A01EE210ADFED8F1A41EE001A9F
:10531000B0EE600A02EE210AA8E710B52DED048B6D
:105320000446F0EE408AB0EEE80AB0EE408AF7EEAE
:10533000000A70EEC80AB0EE600A41F052F9DFEDE3
:10534000830A9FED831A41EE080A9FED821A08EE48
:10535000201ADFED810A48EE010A20EE200AB0EEA5
:10536000409AF5EEC08AF1EE10FA06D29FED6F0A70
:1053700030EE490ABDEC048B10BDB0EE490AF9E7E6
:10538000F0EE400A9FED750AF4EEC00AF1EE10FA55
:1053900004DD9FED730A30EEC00A70479FED710A7D
:1053A000F4EEC00AF1EE10FA04D29FED6D0A30EE71
:1053B000800AF2E7B0EE600AEFE731B52DED020B9F
:1053C000044604F150003FF0E1FAA0F1500404F16A
:1053D00054003FF0DBFAA0F1540404F1580000BF80
:1053E000A0F15804B7EE000A84ED000A9FED460ACA
:1053F00084ED030A84ED020A84ED010A694604F192
:10540000500042F080FC01A904F1540042F07BFC02
:105410000020A063E06320463EBD10B52DED108B4B
:1054200088B00446B0EE40AAF0EE608AB0EE419A31
:10543000F0EE61BAB0EE42CAB0EE62BAF0EE43AA44
:105440009FED310A8DED040A9FED2F0A8DED030AC1
:105450009FED2D0AB0EE40FA4FF0E02080694249FE
:1054600008600846006841490968884209D94FF038
:10547000E02040693D49096808443B490968401AF1
:1054800004E03A48006838490968401A07904FF02C
:10549000E020406900EE100AB8EE400A1FEDFA1A4B
:1054A000C0EE010A9DED070AB8EE400A80EE201A10
:1054B000F0EE419A1FEDF90AC9EE800AF0EE609A0B
:1054C00029480068294908609FED290AF4EEC09A2E
:1054D000F1EE10FA03D29FED270AF0EE409AB0EEFB
:1054E0006A0A2046FFF74CFFF0EE40AAB0EE4A0AE7
:1054F00000F045FB40E0000080060020840600200C
:10550000880600208C06002000000000E3B59E3EC7
:1055100039094E3D88FA163E45FE7F3FA7DFA83485
:1055200069A2163E99FB243FDB0FC93FDB0F4940C0
:10553000DB0FC940DB0F49C0DB0FC9BF9A7C2E3699
:10554000FAAF4FB93587083CA4AA2ABE2716983D62
:10555000306E99BC843459BEA40DC93F0000344359
:105560000000B443000034C3640700206807002033
:1055700017B7D1386F128339F0EE40FAB0EE680AEF
:1055800000F0FDFA7FEE80FAB0EE490A00F0F7FA7B
:105590003FEE800A8DED010A9DED010A41F021F8F0
:1055A0008DED020A05E01FED1E0A3AEEC00AF0EE8C
:1055B00040AA1FED220AF4EEC0AAF1EE10FAF2DCC6
:1055C00005E01FED250A3AEE800AF0EE40AA1FED35
:1055D000270AF4EEC0AAF1EE10FAF2D3B0EE000AF8
:1055E000CAEE800AF0EE602AB0EE620A2046FFF7AB
:1055F0002FFE30EE0F0AB0EE40FA94ED010AD4ED22
:10560000030A20EE200AD4ED000A94ED021A00EEFF
:10561000C10AF0EE000A20EE200A8DED060A94ED94
:10562000000AD4ED010A20EE200AD4ED020A94ED1E
:10563000031A00EE810AF0EE000A20EE200A8DED3A
:10564000050A94ED000A20EE000AD4ED010A94ED5B
:10565000011A00EEC10AD4ED020A94ED021A00EE1E
:10566000C10AD4ED030A94ED031A00EE810AF0EEAC
:1056700040EAB0EE6B0A00F082FAF0EE40FAB0EECB
:105680004C0A00F07CFA7FEE80FAB0EE4B0A00F094
:1056900076FA3FEE808A9FEDFE0AB4EEC08AF1EE04
:1056A00010FA22DDB0EE480A2046FFF74EFDB0EEBC
:1056B000408A2BEE880AF0EE40BA2CEE080AB0EED3
:1056C00040CA2BEE080AB0EE40BA6CEE2E0A9DEDF1
:1056D000050A4BEE400ACDED040A9DED060A2BEEBD
:1056E000000A0BEEEE0A8DED030A04F1540000BF30
:1056F00090ED000AB5EEC00AF1EE10FA2EDD9DED38
:10570000020ADFEDE40AB4EEE00AF1EE10FA34D258
:1057100000BF00BFD0ED000AB0EE600ADDED040A64
:1057200020EE201ADC48D0ED000A41EE290AC0ED37
:10573000000ADDED030A20EE201AD848D0ED000A59
:1057400041EE290AC0ED000A20EE0F1AD448D0ED30
:10575000000A41EE290AC0ED000A0EE01FED960A8C
:10576000CD4880ED000A1FED980ACC4880ED000A74
:105770001FED9B0ACA4880ED000A04F1500000BFEB
:1057800090ED00EAC448D0ED000A9DED040A4EEE0B
:10579000000A30EE8A0AB0EE40AAC048D0ED000AF6
:1057A0009DED030A4EEE000A30EEA80AF0EE408AA4
:1057B000BB4890ED000A0EEE0F0A30EE090AB0EE7B
:1057C000409AB6EE000A29EE800A20EE0A0AB0EEF0
:1057D00040AAB6EE000A29EE800A20EE280AF0EE72
:1057E000408AB6EE000A29EE800A20EE090AB0EEE1
:1057F000409AD4ED00CA94ED01DAD4ED02DAB1EEAC
:105800004D0A20EE0A0A0DEEE80AD4ED030A00EE76
:10581000C90AD4ED000A30EE200A84ED000A2CEE0D
:105820008A0A0DEE890AD4ED030A00EEE80AD4EDE7
:10583000010A30EE200A84ED010A2CEEA80A0DEED2
:10584000490AD4ED030A00EE8A0AD4ED020A30EECA
:10585000200A84ED020A2CEE890A0DEE280A0DEECC
:10586000CA0AD4ED030A30EE200A84ED030AD4ED0F
:10587000000AB0EE600A00F082F9F0EE40FAD4EDD2
:10588000010AB0EE600A00F07AF97FEE80FAD4EDFA
:10589000020AB0EE600A00F072F97FEE80FAD4EDF1
:1058A000030AB0EE600A00F06AF93FEE800A8DED5F
:1058B000010A9DED010A2046FFF747FCB0EE408A41
:1058C00094ED000A20EE080A84ED000A94ED010A26
:1058D00020EE080A84ED010A94ED020A20EE080A7F
:1058E00084ED020A94ED030A20EE080A84ED030A0F
:1058F00008B0BDEC108B10BD70B504460D461646C1
:1059000094ED001A21EE011AD4ED011A94ED012A4A
:1059100001EEC21AD4ED021A94ED022A01EEC21A67
:10592000D4ED031A94ED032A01EE821AF0EE410A37
:1059300094ED021AD4ED031A21EE211AD4ED001AC7
:1059400094ED012A01EE821AF0EE001A21EE211ADE
:10595000B0EE410A3FF05CFD86ED010AD4ED010A8C
:1059600094ED031A60EE810A94ED001AD4ED021A48
:1059700041EE610AB8EE001A60EE810AB0EE600AEC
:105980003FF04CFA86ED000A94ED001A21EE011A60
:10599000D4ED011A94ED012A01EE821AD4ED021A17
:1059A00094ED022A01EEC21AD4ED031A94ED032AF3
:1059B00001EEC21AF0EE410A94ED011AD4ED021A7A
:1059C00021EE211AD4ED001A94ED032A01EE821A79
:1059D000F0EE001A21EE211AB0EE410A3FF018FD58
:1059E00086ED020A96ED000ADFED2E0A20EE200A6F
:1059F00085ED000A96ED010ADFED2A0A20EE200A65
:105A000085ED010A96ED020ADFED260A20EE200A56
:105A100085ED020A95ED000ADFED230A20EE200A4B
:105A2000BDEEC00A214880ED000A95ED010ADFEDC8
:105A30001E0A20EE200ABDEEC00A1D4880ED000AB5
:105A400095ED020ADFED180A20EE200ABDEEC00A2D
:105A5000184880ED000A94ED000ADFED170A20EEE9
:105A6000200ABDEEC00A154880ED000A94ED010A37
:105A7000DFED110A20EE200ABDEEC00A104880EDCD
:105A8000000A94ED020ADFED0C0A20EE200A19E06C
:105A90000AD7233CC2B8B23E580700205C0700205A
:105AA00060070020E02E65420000C8427406002016
:105AB000780600207C06002000007A448006002042
:105AC00084060020BDEEC00A2F4880ED000A94ED48
:105AD000030A5FED070A20EE200ABDEEC00A2B483C
